:0400000059EF00F0C4
:100008002182FACF01F0FBCF02F0D9CF03F0DACF8B
:1000180004F0F2AC12EF00F014EF00F04FEF00F034
:100028009DA819EF00F01BEF00F031EF00F09EA83B
:1000380020EF00F022EF00F031EF00F002D82FEFB0
:1000480000F00500FA6E1F50FD6E2050FE6EF8504D
:10005800FF6EFA5012004FEF00F09DAA36EF00F045
:1000680038EF00F04FEF00F09EAA3DEF00F03FEFB1
:1000780000F04FEF00F002D84DEF00F0050000014E
:10008800FA6EE051FD6EE151FE6EF850FF6EFA50C7
:1000980012004FEF00F004C0DAFF03C0D9FF02C01E
:0E00A800FBFF01C0FAFF219211009EEF0BF04A
:100F0000009C18741864189E10161290184C130A3E
:100F1000190219FA18F218EA18E218DA1884183EB9
:100F2000140002EC0CF0300E0001746F310E756F7E
:100F3000320E766F0E0E886FCD0E896F000E9D6F8C
:100F4000000E9C6F9C51740FD96EDA6A9CC016F02B
:100F5000020E16261650880FE16EE26ADFCFE7FF19
:100F60009C4B9D2B9DBFBEEF07F09D5109E1030EE9
:100F70009C5DD8A0BEEF07F0C0EF07F0A2EF07F02E
:100F8000500E5FEC09F0E806D8B4C9EF07F0CBEFDC
:100F900007F0C0EF07F0880E056E066A000E086EB7
:100FA000050E076EC4EC0BF0000EBBEC0AF074ECFF
:100FB0000BF0E806D8B4DFEF07F0E1EF07F0D7EF6A
:100FC00007F0210E166E760EE82EFED7162EFCD7F1
:100FD00000D0500E5FEC09F0E806D8B4F2EF07F04D
:100FE000F4EF07F0E9EF07F0880E056E066A000ED1
:100FF000086E020E076EC4EC0BF0000EBBEC0AF09C
:10100000600E056E066A000E086E030E076EC4ECD5
:101010000BF0010EBBEC0AF074EC0BF0E806D8B450
:1010200014EF08F016EF08F00CEF08F0210E166E22
:10103000760EE82EFED7162EFCD700D0280E5FECD9
:1010400009F0E806D8B427EF08F029EF08F01EEF02
:1010500008F0600E056E066A000E086E030E076E3D
:10106000C4EC0BF0000EBBEC0AF074EC0BF0E806DD
:10107000D8B43DEF08F03FEF08F035EF08F01A0E56
:10108000176E5E0E166E6E0EE82EFED7162EFCD76D
:10109000172EFAD700D0C0EF07F059EF00F017EC89
:1010A0000CF00009D8B457EF08F059EF08F096EFAC
:1010B00008F067EF08F085EC0CF0B2EF08F081EC77
:1010C0000CF0B2EF08F079EC0CF0B2EF08F0B0C021
:1010D0000EF0B1C00FF020EEA4F002D87AEF08F0C5
:1010E0000500FA6EDE50FD6EDE50FE6EF850FF6EAB
:1010F000FA501200116E126A1250000AD8B483EF2F
:1011000008F063EF08F01150010AD8B463EF08F05B
:10111000030AD8B45BEF08F0010AD8B45FEF08F017
:10112000070AD8B463EF08F063EF08F00001C1913B
:10113000BBC0D9FFBCC0DAFFBB4BBC2BDF5089EC76
:101140000CF00001BD07D8A0BE07BD51BE11D8A448
:10115000ACEF08F0AEEF08F0B1EF08F0060EB2EF1A
:1011600008F0030E12001B50C20FD96EDA6ADF6A54
:10117000ABA4BDEF08F0BFEF08F0D2EF08F01B50B2
:10118000C20FD96EDA6A0001DF8202D8D2EF08F00E
:101190000500FA6EDE51FD6EDF51FE6EF850FF6EF7
:1011A000FA501200ABA2D7EF08F0D9EF08F0ECEF3D
:1011B00008F01B50C20FD96EDA6A0001DF8402D832
:1011C000ECEF08F00500FA6EDC51FD6EDD51FE6EAD
:1011D000F850FF6EFA5012001B50C20FD96EDA6A37
:1011E000DF50D8B4F6EF08F0F8EF08F008EF09F098
:1011F00002D806EF09F005000001FA6EDA51FD6E23
:10120000DB51FE6EF850FF6EFA5012000AEF09F043
:10121000B1EC0BF012009DEC0CF0BBC0D9FFBCC0D0
:10122000DAFFDF6E0001BB4BBC2BBD07D8A0BE07A9
:10123000BD51BE11D8B41FEF09F021EF09F026EF20
:1012400009F08DEC0CF0050E5EEF09F0C18731EF6F
:1012500009F06DEC0CF05EEF09F071EC0CF05EEF54
:1012600009F0AAC00EF0ABC00FF002D842EF09F0AF
:101270000500FA6E9E51FD6E9F51FE6EF850FF6E96
:10128000FA501200116E126A1250000AD8B44BEFD5
:1012900009F02DEF09F01150010AD8B42DEF09F033
:1012A000030AD8B429EF09F0010AD8B429EF09F0EC
:1012B000070AD8B42DEF09F02DEF09F01200056EE2
:1012C000010E066E0001C1B568EF09F06AEF09F082
:1012D000A4EF09F005C0BAF0C193C185C1910E0E0B
:1012E000BF6F010EB96FF40EB86FC187460E9E6FC7
:1012F000190E9F6F000EAA6F000EAB6F460EA06F07
:10130000190EA16F000EAC6F000EAD6F460EA26FEE
:10131000190EA36F000EAE6F000EAF6F460EA46FD6
:10132000190EA56F000EB06F000EB16F420EA66FC2
:10133000190EA76F000EB26F000EB36FAFEC0CF07A
:10134000D6EC0BF0000E066E065012000001C187AD
:10135000B7EF09F07DEC0CF0E4EF09F09BEC0CF03A
:10136000030EE4EF09F079EC0CF0E4EF09F0AAC009
:101370000EF0ABC00FF002D8C8EF09F00500FA6E0E
:101380009E51FD6E9F51FE6EF850FF6EFA50120096
:10139000116E126A1250000AD8B4D1EF09F0B3EFFF
:1013A00009F01150010AD8B4B3EF09F0030AD8B418
:1013B000AAEF09F0010AD8B4AAEF09F0070AD8B4D5
:1013C000AEEF09F0B3EF09F012009D9A660E056EBC
:1013D000110E066E59EC0CF09D98FC0E056E150E64
:1013E000066E54EC0CF0080EA76E900EAB6E240E39
:1013F000AC6E080EAF6E020E7D6E620E056E190E9B
:10140000066E63EC0CF0260E056E190E066E5EEC91
:101410000CF02C0E056E190E066E68EC0CF0000E2A
:10142000186E000E1E6E000E1D6E080E1C6E000E55
:101430001B6E000E1A6E000E196E9D8A12000001BE
:10144000C191020EC06F2DEF0AF07DEC0CF054EF4D
:101450000AF079EC0CF054EF0AF0AEC00EF0AFC019
:101460000FF020EEA2F002D840EF0AF00500FA6E6D
:10147000DE50FD6EDE50FE6EF850FF6EFA50120028
:10148000116E126A1250000AD8B449EF0AF029EF1F
:101490000AF01150020AD8B425EF0AF0010AD8B4B4
:1014A00025EF0AF029EF0AF01200AFEC0CF0000172
:1014B000C1A15DEF0AF05FEF0AF06CEF0AF017ECE4
:1014C0000CF00009D8B467EF0AF069EF0AF06CEF8E
:1014D0000AF00F0E0001BF6F0001BF51020DF35063
:1014E000010F136E13C0F6FF0F0EF76E02D885EFD3
:1014F0000AF00500FA6E0900F550FD6E0900F5507E
:10150000FE6EF850FF6EFA5012000001BF6F12001D
:10151000096E05500610D8B490EF0AF092EF0AF069
:10152000A8EF0AF00950020DF3509E0FD96EDA6A47
:1015300005C0DEFF06C0DDFF0950020DF350AA0F03
:10154000D96EDA6A07C0DEFF08C0DDFFBAEF0AF025
:101550000950020DF3509E0FD96EDA6A460EDE6E08
:10156000190EDD6E0950020DF350AA0FD96EDA6A1A
:10157000DE6ADD6A1200146E010E156E0001C1B341
:10158000C4EF0AF0C6EF0AF0DBEF0AF0C183000EE9
:10159000156E1450D8B4CFEF0AF0D1EF0AF0D5EFA2
:1015A0000AF0010EBF6FD7EF0AF0020EBF6FA9EC71
:1015B0000CF0E7EC0BF01550120020EE02F00E508C
:1015C000D9260F50DA22DF50106E10C005F0066ADF
:1015D0000EC0D9FF0FC0DAFFDECF07F0DDCF08F075
:1015E000C4EC0BF0000E0A6E000E0B6E000E0C6EBB
:1015F000000E0D6EF6EC0BF0020E1200080E1C60D1
:1016000004EF0BF006EF0BF01AEF0BF01D50D20FAA
:10161000D96EDA6ADF50AD6E1D2A070E1D6413EF16
:101620000BF015EF0BF017EF0BF0000E1D6E1C2AE0
:101630001BEF0BF09D9812000EC005F00FC006F0D6
:10164000000E086E010E076EC4EC0BF0000E0A6E61
:10165000000E0B6E000E0C6E000E0D6EF6EC0BF015
:10166000040E12000EC005F00FC006F0000E086E4A
:10167000020E076EC4EC0BF0000E0A6E000E0B6E2D
:10168000000E0C6E000E0D6EF6EC0BF0020E12004A
:101690000EC005F00FC006F0000E086E010E076EBA
:1016A000C4EC0BF0000E0A6E000E0B6E000E0C6EFA
:1016B000000E0D6EF6EC0BF0020E12000EC005F0DF
:1016C0000FC006F0000E086E020E076EC4EC0BF0A1
:1016D000000E0A6E000E0B6E000E0C6E000E0D6EEC
:1016E000F6EC0BF0040E1200010E056E0001C1B302
:1016F0007CEF0BF07EEF0BF088EF0BF0C195BA6931
:10170000AFEC0CF0ABEC0CF0ADEC0CF0C0C005F0A5
:1017100005501200000E896E000E8A6E000E8B6E50
:10172000EF0E926E9368BF0E946E1F0E0F015D6FE9
:10173000070E5C6F000E5B6FF18E120000EE9EF0E4
:101740003C0EEE6AE806FDE100EE18F0070EEE6AC8
:10175000E806FDE121902192000EF86E000191EF64
:1017600007F01B50CA0FD96EDA6AAECFDFFF1B2A13
:10177000070E1B64BEEF0BF0C0EF0BF0C2EF0BF0D7
:10178000000E1B6E192A12000001C1A7CAEF0BF050
:10179000CCEF0BF0D5EF0BF005C0BBF006C0BCF0F2
:1017A00007C0BDF008C0BEF0C1971200C6BADBEF9B
:1017B0000BF0DDEF0BF0E6EF0BF0000EC76E080E3E
:1017C000C66E000EC56EC70EC86EC68A1200EDEF5B
:1017D0000BF02AEC0CF055EC0AF00001C1B3F3EF6A
:1017E0000BF0F5EF0BF0E9EF0BF012000AC005F07B
:1017F0000BC006F00CC007F00DC008F0000E88EC1E
:101800000AF0120099EC0CF00DEC0CF08AEC0BF0E5
:1018100021EC0CF0E5EC09F01200000EC76E080E8A
:10182000C66E000EC56E630EC86EC69A1200C5BCA9
:101830001CEF0CF01FEF0CF0010E20EF0CF0000E6F
:101840001200600ED36E000ED26E000E9B6E000E64
:101850009A6E12009EA62FEF0CF031EF0CF02AEFDB
:101860000CF012000001C181BA51BA2589EC0CF0CC
:10187000030E12000001C181D880BA3589EC0CF04A
:10188000050E12000001C193000EC06F0E0E120073
:101890000001C1919FEC0CF0040E12000001C193F5
:1018A000000EC06F0E0E120005C01FF006C020F023
:1018B000120005C0E0F006C0E1F0120005C0DCF047
:1018C00006C0DDF0120005C0DEF006C0DFF0120039
:1018D00005C0DAF006C0DBF0120090EC0CF0090E47
:1018E000120090EC0CF00A0E12008DEC0CF0050EBC
:1018F0001200A5EC0CF0000E1200A7EC0CF0010E8B
:101900001200A7EC0CF0020E1200A7EC0CF0010E76
:101910001200056E05C0C9FF1200C59AC5881200E5
:10192000C58AC5881200AB98AB881200B1EC0BF0E9
:101930001200D09E12009E861200C9501200C58669
:101940001200050E1200010E1200C5841200C5829D
:101950001200C58012009D961200C69A12009E9633
:04196000120012005F
:020000040030CA
:0E00000015027F50FF8991FF0FC00FE00F40E7
:00000001FF
